:020000040800F2
:1000000098040020250300082D0F00082F0F00087A
:10001000330F0008370F00083B0F000800000000F6
:100020000000000000000000000000003F0F00087A
:10003000410F000800000000430F0008450F0008B2
:100040003F0300083F0300083F0300083F03000888
:100050003F0300083F0300083F0300083F03000878
:100060003F0300083F0300083F0300083F03000868
:100070003F0300083F0300083F0300083F03000858
:100080003F0300083F0300083F0300083F03000848
:100090003F0300083F0300083F0300083F03000838
:1000A0003F0300083F0300083F0300083F03000828
:1000B0003F0300083F0300083F0300083F03000818
:1000C0003F0300083F0300083F0300083F03000808
:1000D0003F030008510F00083F0300083F030008DA
:1000E0003F0300083F0300083F0300083F030008E8
:1000F0003F0300083F0300083F0300083F030008D8
:100100003F0300083F0300083F0300083F030008C7
:100110003F0300083F0300083F0300083F030008B7
:100120003F0300083F0300083F0300083F030008A7
:10013000DFF80CD001F090FC00480047251A0008B9
:10014000980400200CB50020019000906C480068D5
:1001500040F480306A49086000BF6948006800F4D4
:10016000003000900198401C0190009818B9019847
:10017000B0F5A06FF1D16248006800F4003010B112
:100180000120009001E0002000900098012843D158
:100190005C48006840F010005A4908600846006852
:1001A00020F0030008600846006840F00200086084
:1001B00053484068524948600846406848600846CD
:1001C000406840F4806048600846406820F47C1035
:1001D00048600846406840F4E810486008460068F7
:1001E00040F08070086000BF4548006800F0007073
:1001F0000028F9D04248406820F003004049486098
:100200000846406840F00200486000BF3C48406833
:1002100000F00C000828F9D10CBD10B5FFF792FFD3
:1002200010BD10B53648006840F001003449086040
:10023000084640683449084031494860084600682B
:10024000324908402E4908600846006820F48020A2
:1002500008600846406820F4FE0048604FF41F0024
:100260008860FFF7DAFF4FF000602949086010BD91
:1002700010B5002100200022214B5B6803F00C0127
:1002800021B1042906D0082928D107E0214B224CAE
:10029000236027E01F4B204C236023E0184B5B6852
:1002A00003F47010164B5B6803F48032022303EBF7
:1002B000904022B9194B4343174C23600DE0104B7B
:1002C0005B6803F4003323B1144B4343124C2360A7
:1002D00003E0104B4343104C236003E00D4B0E4CE6
:1002E000236000BF00BF064B5B68C3F303130C4CD5
:1002F000E15C094B1B68CB40074C236010BD00003C
:1003000000100240002002400000FFF8FFFFF6FE50
:1003100008ED00E000127A000000002000093D0016
:10032000040000200648804706480047FEE7FEE735
:10033000FEE7FEE7FEE7FEE7FEE7FEE7FEE7FEE795
:10034000230200083101000831490143314A11609C
:10035000704770B5002100230F22C47804B32D4CE0
:10036000246804F4E064C4F5E064210AC1F10403E4
:10037000CA40447804FA03F1847814402143090107
:10038000254C0678A155047804F01F050124AC40E3
:1003900005786D11AD0005F1E025C5F8004109E0D3
:1003A000047804F01F050124AC401C4D067876113A
:1003B00045F8264070BD1A4A0A400243154B1B1FE0
:1003C0001A60704739B1134A121D12680243114B6B
:1003D0001B1D1A6006E00F4A121D126882430D4B66
:1003E0001B1D1A607047042808D14FF0E0210969ED
:1003F00041F004014FF0E022116107E04FF0E021ED
:10040000096921F004014FF0E022116170470000FA
:100410000000FA050CED00E000E400E080E100E0FF
:1004200080FFFF1F10B50446CC48844208D101214B
:10043000042000F02DFB0021042000F029FB46E001
:10044000C748844208D10121082000F021FB002187
:10045000082000F01DFB3AE0C248844208D1012187
:10046000102000F015FB0021102000F011FB2EE001
:10047000BD48844208D10121202000F009FB002161
:10048000202000F005FB22E0B848844208D1012179
:10049000402000F0FDFA0021402000F0F9FA16E0BB
:1004A000B348844208D10121802000F0F1FA0021F4
:1004B000802000F0EDFA0AE0AE48844207D1012125
:1004C000801500F0E5FA0021A01500F0E1FA10BD5A
:1004D00010B50121084600F0DBFA0021012000F0F0
:1004E000D7FA10BD2DE9F041024600250026002074
:1004F00000230024002791F803C00CF00F0591F8A9
:1005000003C00CF0100CBCF1000F03D091F802C036
:100510004CEA050591F800C0BCF1000F31D0146819
:1005200000202BE04FF0010C0CFA00F3B1F800C0F2
:100530000CEA03069E4220D183004FF00F0C0CFA08
:1005400003F7BC4305FA03FC4CEA040491F803C02A
:10055000BCF1280F06D14FF0010C0CFA00FCC2F8D8
:1005600014C00AE091F803C0BCF1480F05D14FF068
:10057000010C0CFA00FCC2F810C0401C0828D1D3B2
:100580001460B1F800C0BCF1FF0F34DD54680020E6
:100590002EE000F1080C4FF0010808FA0CF3B1F856
:1005A00000C00CEA03069E4221D183004FF00F0CDD
:1005B0000CFA03F7BC4305FA03FC4CEA040491F877
:1005C00003C0BCF1280F05D100F1080C08FA0CF8A3
:1005D000C2F8148091F803C0BCF1480F07D100F1B4
:1005E000080C4FF0010808FA0CF8C2F81080401C03
:1005F0000828CED35460BDE8F0814FF6FF7101802A
:10060000022181700421C170704702460020936866
:100610000B400BB1012000E00020704701468868C4
:1006200080B2704702460020D3680B400BB1012016
:1006300000E0002070470146C86880B27047016141
:100640007047416170470AB1016100E04161704744
:10065000C16070474FF480320A43826181618261D8
:1006600082698269704702460020434B18684FF642
:100670008073184040EA021008433F4B18607047EF
:100680003E49C8617047F0B50A46002300240021A6
:10069000002500F00046B6F1004F02D1364EF16958
:1006A00001E0354E7168C0F3034583B200F4401693
:1006B000B6F5401F08D121F070612F4E766826F004
:1006C00070662D4F7E6012E000F48016B6F5801F34
:1006D00006D1032606FA05F4A14341F0706106E055
:1006E000460D360103FA06F6B14341F0706122B1BE
:1006F000460D360103FA06F6314300F00046B6F126
:10070000004F02D11C4EF16101E01B4E7160F0BD43
:1007100030B500228B071C0F0F2303FA04F2164B8F
:1007200008338C1053F824309343134C08348D1045
:1007300044F8253023468C1053F824308C07240FBE
:1007400000FA04F423430C4C08348D1044F825308F
:1007500030BD0A49DC3108607047000000080140E4
:10076000000C01400010014000140140001801403D
:10077000001C014000200140000001400000204218
:10078000DF48006840F00100DD4908600846406825
:10079000DC490840DA49486008460068DA49084000
:1007A000D74908600846006820F4802008600846A1
:1007B000406820F4FE0048604FF41F0088607047D6
:1007C000CF49096821F48031CD4A1160114609688A
:1007D00021F480211160B0F5803F03D0B0F5802F67
:1007E0000ED106E0C649096841F48031C44A11605F
:1007F00007E0C349096841F4A021C14A116000E043
:1008000000BF00BF704710B5014600220023002042
:100810004A11012A02D1BA4C236806E0022A02D109
:10082000B74C236A01E0B64C636A01F01F02012451
:1008300094401C400CB1012000E0002010BD38B5F0
:10084000002000900024002500BF3120FFF7DBFFCF
:1008500005460098401C00900098B0F5A06F01D0AC
:10086000002DF2D03120FFF7CEFF08B1012400E0C7
:100870000024204638BD01460020A14A106820F01F
:10088000F80040EAC10010607047A0490860704756
:10089000024600209A4B586820F47C1042EA01037B
:1008A0001843974B5860704798490866704701464F
:1008B0000020934A506820F00300084350607047BE
:1008C0008F48406800F00C007047014600208C4AB9
:1008D000506820F0F0000843506070470146002047
:1008E000874A506820F4E060084350607047014632
:1008F0000020834A506820F4605040EAC1005060F4
:10090000704729B17E4A527A02437D4B5A7204E005
:100910007B4A527A82437A4B5A7270477B49D8316C
:100920000860704701460020754A506820F4404036
:100930000843506070470021714A20321170704A9C
:1009400082F82010012802D004280AD104E00121F5
:100950006B4A2032117005E00521694A203211707E
:1009600000E000BF00BF70476949086070476449F4
:10097000096A0143624A1162704765494439086057
:10098000704730B500210022002400235C4D6D68C3
:1009900005F00C0121B1042905D0082923D105E077
:1009A0005C4D056022E05B4D05601FE0544D6D68B5
:1009B00005F47012524D6D6805F48034022505EB84
:1009C00092421CB9544D554305600BE04C4D6D6887
:1009D00005F400351DB1504D5543056002E04D4D05
:1009E0005543056002E04B4D056000BF00BF444D1C
:1009F0006D6805F0F0010909484D6B5C0568DD4044
:100A000045603F4D6D6805F4E061090A434D6B5C3C
:100A10004568DD4085603A4D6D6805F46051C90A4E
:100A20003E4D6B5C4568DD40C560354D6D6805F435
:100A30004041890B3A4D6B5CC568B5FBF3F5056128
:100A400030BD29B12E4A526902432D4B5A6104E050
:100A50002B4A526982432A4B5A61704729B1284A6E
:100A600092690243264B9A6104E0254A92698243C7
:100A7000234B9A61704729B1214AD2690243204B26
:100A8000DA6104E01E4AD26982431D4BDA61704785
:100A900029B11B4AD2680243194BDA6004E0184AB4
:100AA000D2688243164BDA60704729B1144A126942
:100AB0000243134B1A6104E0114A12698243104B3E
:100AC0001A61704712494039086070470F49C8647D
:100AD00070470B49C87170470948406A40F0807000
:100AE00007494862704701460020054A92680A405B
:100AF0000AB1012000E00020704701498872704768
:100B0000001002400000FFF8FFFFF6FE0000424226
:100B10008004424200127A0000093D0014000020C7
:100B20002400002010B50446FB48844209D101216D
:100B30008803FFF7ADFF00214FF48040FFF7A8FFC7
:100B400032E0F648844209D101214804FFF7ADFFA5
:100B500000214FF40030FFF7A8FF25E0F048844261
:100B600009D101218804FFF7A0FF00214FF4802064
:100B7000FFF79BFF18E0EB48844209D10121C8042C
:100B8000FFF793FF00214FF40020FFF78EFF0BE0EB
:100B9000E548844208D101210805FFF786FF0021BE
:100BA0004FF48010FFF781FF10BD2DE9F04786B0AC
:100BB00005460E460024A24600BFA1460027B08984
:100BC00000B100BF2F462C8A4CF6FF700440F0881D
:100BD00004432C82AC894EF6F3100440B08831896E
:100BE0000843718908430443AC81AC8A4FF6FF4047
:100BF0000440B0890443AC8201A8FFF7C2FEC64896
:100C0000874202D1DDF810A001E0DDF80CA0A88930
:100C100000F4004040B10AEBCA0000EB0A10316852
:100C20004900B0FBF1F807E00AEBCA0000EB0A103C
:100C300031688900B0FBF1F86420B8FBF0F00401E2
:100C40002009642101FB1089A88900F4004040B10B
:100C5000322000EBC900B0FBF1F000F007000443C4
:100C600008E0322000EB09106421B0FBF1F000F045
:100C70000F0004432C8106B0BDE8F0874FF41651F5
:100C8000016000218180C18001810C21418100210E
:100C90008181704710B502460020108A4FF2FF0391
:100CA00018400B884C8823438C882343CC882343EB
:100CB0001843108210BD0021018041808180C180D5
:100CC000704721B1828942F40052828104E0828916
:100CD0004DF6FF731A4082817047F0B50346002439
:100CE00000260025002040F66A17B94200D100BF57
:100CF0001846C1F3421401F01F06012707FA06F552
:100D0000012C01D10C3004E0022C01D1103000E0A4
:100D100014301AB107682F43076002E00768AF4339
:100D20000760F0BD1AB1838A0B43838202E0838A95
:100D30008B4383827047028A4FF6F0731A40028217
:100D4000028A0A430282704782894FF2FF731A4077
:100D5000828182890A438281704721B1828942F06F
:100D60000202828104E082894FF6FD731A4082817B
:100D70007047028A4FF6DF731A400282028A0A43E2
:100D80000282704721B1028A42F48042028204E06A
:100D9000028A4BF6FF731A4002827047C1F30802C1
:100DA0008280704701468888C0F3080070478189B7
:100DB00041F0010181817047028BD2B20283028B24
:100DC00042EA012202837047028B02F47F420283CF
:100DD000028B0A430283704721B1828A42F02002CB
:100DE000828204E0828A4FF6DF731A408282704763
:100DF00021B1828A42F01002828204E0828A4FF698
:100E0000EF731A408282704721B1828A42F0080251
:100E1000828204E0828A4FF6F7731A40828270471A
:100E200021B1828942F40042828103E08289C2F3C7
:100E30000E028281704721B1828A42F4006282826E
:100E400004E0828A4FF2FF731A4082827047828ADE
:100E50004FF6FB731A408282828A0A43828270476D
:100E600021B1828A42F00202828204E0828A4FF635
:100E7000FD731A408282704702460020B1F5007F60
:100E800000D100BF13880B400BB1012000E000200F
:100E9000704701F40072B2F5007F00D100BFCA4371
:100EA0000280704770B50246002400230025002010
:100EB00040F66A16B14200D100BFC1F3421501F0FD
:100EC0001F03012606FA03F3012D02D19689334050
:100ED00006E0022D02D1168A334001E0968A3340A3
:100EE0000C12012606FA04F41688344013B10CB132
:100EF000012000E0002070BD10B50022002340F664
:100F00006A14A14200D100BF0A1201249440A3B286
:100F1000DC43048010BD0000003801400044004064
:100F200000480040004C004000500040704700BFA7
:100F3000FEE700BFFEE700BFFEE700BFFEE7704729
:100F40007047704705480068401C044908607047B6
:100F500010B5034800F0F5FC10BD0000280000208B
:100F60000038014000BFF74B1B68194600EB4003F7
:100F7000C3EBC01301EBC30200BF00BFF14B1B6802
:100F8000D31A002BF9DC70472DE9F84304460025FD
:100F900000260027B4F57A7F06D34FF47A70B4FBAD
:100FA000F0F84046FFF7DEFF4FF47A70B4FBF0F143
:100FB00000FB1144E44800684FF47A71B0FBF1F093
:100FC00000FB04F700F08AFD054600BF0A200090F0
:100FD00002E00098401E009000980028F9D100F02F
:100FE0007DFD461BBE42F1D3BDE8F8832DE9F041FB
:100FF000044600260027B046B4F57A7F06D34FF4A6
:101000007A70B4FBF0F52846FFF7BEFF4FF47A7014
:10101000B4FBF0F100FB1144CB480068CB49B0FBB6
:10102000F1F000FB04F800F059FD064600BF0A2568
:1010300000E06D1E002DFCD100F050FD871B4745E0
:10104000F5D3BDE8F08130B5034618460C4604E000
:1010500014F8015B00F8015B521E002AF8D130BD84
:1010600030B5034618460C4600BF00BF00BF00BFA6
:1010700002E020CC20C0521E002AFAD130BD10B5AB
:101080000346184602E000F8011B521E002AFAD15E
:1010900010BD10B50346184600BF00BF01E002C0F6
:1010A000521E002AFBD110BDF0B503460C46154672
:1010B00000201946224609E00E781778BE4203D078
:1010C0000E781778F01B05E0491C521C2E1EA5F166
:1010D0000105F1D100BFF0BDF0B503460C46154641
:1010E00000201946224609E00E681768BE4203D068
:1010F0000E681768F01B05E0091D121D2E1EA5F1D4
:101100000105F1D100BFF0BD30B50A461146851A80
:101110006C1E00BF11F8013B0B55002BFAD130BDFE
:1011200070B50346144618465B1E042C28D3A50848
:1011300000BF11F8012B5E1C3346327002B918E073
:1011400011F8012B5E1C3346327002B911E011F820
:10115000012B5E1C3346327002B90AE011F8012BF4
:101160005E1C3346327002B903E06E1E351EE0D1BC
:1011700007E000BF1E1AA61B741E04B970BD11E063
:1011800000BF04F0030404B9F8E700BF11F8012B15
:101190005D1C2B462A70651E2C1E00D1EEE7002A2E
:1011A000F4D100BF00BF00265D1C2B462E70651ECB
:1011B0002C1EF8D100BFE1E730B50B4601461C46B6
:1011C00000BF11F8012B002AFBD1891E00BF14F8C3
:1011D000012B4D1C29462A70002AF8D130BD70B56C
:1011E00003460C46184600BF13F8011B0029FBD12B
:1011F0009B1E042A23D3950800BF14F8011B5E1C14
:101200003346317001B970BD14F8011B5E1C3346C2
:10121000317001B9F7E714F8011B5E1C33463170D9
:1012200001B9F0E714F8011B5E1C3346317001B9B7
:10123000E9E76E1E351EE0D102F0030200BF07E0B1
:1012400014F8011B5D1C2B46297001B9DBE7521E07
:10125000002AF5D119B100265D1C2B462E7000BF67
:10126000D1E770B503460C461E46254600BF16F86A
:10127000011B15F8012B09B9881A70BD9142F6D0EF
:10128000881AFAE770B503460C461546002100227D
:10129000042D2BD3AE0800BF13F8011B14F8012B4B
:1012A00009B1914201D0881A70BD13F8011B14F8DE
:1012B000012B09B1914201D0881AF5E713F8011BFF
:1012C00014F8012B09B1914201D0881AECE713F808
:1012D000011B14F8012B09B1914201D0881AE3E7F0
:1012E000701E061ED8D105F0030500BF09E013F8F3
:1012F000011B14F8012B09B1914201D0881AD3E7E0
:101300006D1E002DF3D1881ACEE7F0B502461346C4
:1013100004E0187808B9981AF0BD5B1C03F00300CC
:101320000028F6D11C464FF08036F70900BF20CCCC
:10133000E81BA84330400028F9D0211F087838B9AD
:10134000881AE9E7280000200000002040420F0032
:10135000487810B9881A401CDEE7887810B9881AD6
:10136000801CD9E7C87810B9881AC01CD4E7DEE71A
:101370002DE9F04103460D465A1915B90020BDE884
:10138000F0819A4201D24FF0FF32194607E0087807
:1013900020B9914200D91146C81AF0E7491C01F062
:1013A00003000028F3D10C464FF080374FF0013C8A
:1013B00023E040CCA6EB0C003840E8B1201F0146EA
:1013C00090F80080B8F1000F00D118E0411C90F8AF
:1013D0000180B8F1000F00D111E0811C90F802806B
:1013E000B8F1000F00D10AE0C11C90F80380B8F1F9
:1013F000000F00D103E000BF11469442D9D300BFD3
:10140000914200D91146C81AB9E7000010B508206A
:1014100000F04AFB102303222021284800F070F836
:1014200020212648FFF70BF910BD10B5082000F069
:101430003BFB102303220121204800F061F8012129
:101440001E48FFF7FCF810BD10B5082000F02CFB7B
:10145000102303220221194800F052F802211748F4
:10146000FFF7EDF810BD10B5FFF7D0FFFFF7DDFF78
:10147000FFF7EAFF10BD10B520211048FFF7E1F893
:101480000120FFF76FFD20210C48FFF7D8F801215C
:101490000A48FFF7D6F80120FFF764FD012107484D
:1014A000FFF7CDF802210548FFF7CBF80120FFF741
:1014B00059FD02210148FFF7C2F810BD000C0140A0
:1014C0002DE9F84307460C4615461E46DDF82080F8
:1014D000042200216846FFF7D2FD3846FEF734FFAC
:1014E000E0B28DF80000E8B28DF80100F0B28DF89E
:1014F00002008DF803806846FEF72BFFBDE8F883F5
:10150000F8B507460C4615461E46042200216846DB
:10151000FFF7B5FDADF800408DF802508DF803607F
:1015200069463846FEF7DEFFF8BD00002DE9FF47AB
:1015300007460C4615461E46DDE90D9ADDF830805B
:10154000102200216846FFF79AFD0094ADF8045080
:10155000ADF80660ADF80880ADF80A90ADF80CA0C3
:1015600069463846FFF721FBBDE8FF8770B50446A2
:101570000D461646324629462046FFF7AEFB70BDA3
:1015800010B5044601212046FFF79BFB10BD0EB5A8
:10159000042000F089FA4FF4804000F085FA182307
:1015A00003224FF40071FD48FFF7AAFF0423032232
:1015B0001902FA48FFF7A4FF00200C21CDE9000131
:1015C000034602464FF4E1310290F548FFF7AEFFC3
:1015D000012003460246252100904FF4A060FFF74A
:1015E0006FFF012240F22551ED48FFF7BFFFEC48A5
:1015F000FFF7C6FF0EBD0EB5042000F055FA4FF4FC
:10160000003000F04AFA182303220421E348FFF7D0
:1016100077FF042303220821E048FFF771FF002031
:101620000C21CDE90001034602464FF4E13102905E
:10163000DC48FFF77BFF012003460246262100908D
:101640004FF4A060FFF73CFF012240F22551D5483E
:10165000FFF78CFFD348FFF793FF0EBD0EB50820B0
:1016600000F022FA4FF4802000F017FA182303222A
:101670004FF48061CC48FFF743FF04230322590253
:10168000C948FFF73DFF00200C21CDE900010346CA
:1016900002464FF4E1310290C448FFF747FF0120B2
:1016A00003460246272100904FF4A060FFF708FF91
:1016B000012240F22551BD48FFF758FFBB48FFF714
:1016C0005FFF0EBD70B504460D4629462046FFF764
:1016D00065FB00BF80212046FFF7CEFB0028F9D034
:1016E00070BD10B504462146AD48FFF7EBFF10BDB5
:1016F00010B504462046FFF7F4FF10BD10B50446B0
:1017000003E014F8010BFFF7F3FF20780028F8D16D
:1017100010BD2DE9F04F87B00546884600BF15F88B
:10172000014B04B9FFE0252C03D02046FFF7E0FF72
:10173000F5E7002715F8014B302C03D1012715F8E8
:10174000014B04E02D2C02D1022715F8014B4FF07C
:10175000000B07E00BEB8B0004EB4000A0F1300B1B
:1017600015F8014B302C01DB392CF3DD6C2C01D04A
:101770004C2C03D147F0040715F8014B04B9D2E013
:101780002646612E02DBA6F12000C6B24F2E42D0C3
:1017900006DC422E3CD0432E32D0442E45D13DE0D3
:1017A000532E04D0552E3AD0582E3ED13AE008F1AF
:1017B0000400804650F8040C00904FF0000A01E04D
:1017C0000AF1010A009810F80A000028F8D102E096
:1017D0002020FFF78DFF07F0020020B950460AF1E4
:1017E000010A5845F4D30098FFF788FF02E0202053
:1017F000FFF77EFF50460AF1010A5845F7D38EE7FE
:1018000008F10401884611F8040CFFF771FF86E720
:10181000022006900DE0082006900AE000BF0A2092
:10182000069006E01020069003E02046FFF760FFD8
:1018300075E700BF07F0040028B108F104008046F6
:1018400050F8040C0CE0442E05D108F10400804649
:1018500050F8040C04E008F10400804650F8040C31
:101860000590442E08D1059800F0004020B105985D
:101870004042059047F008074FF0000900BFDDE93E
:101880000501B0FBF1F201FB1200C6B2DDE9050172
:10189000B0FBF1F00590092E06DD782C01D1272050
:1018A00000E007203044C6B206F13000C2B248461C
:1018B00009F1010901A90A54059810B1B9F1100FF5
:1018C000DDD307F0080028B12D22484609F10109AF
:1018D00001A90A54CA4607F0010008B1302000E00F
:1018E0002020064602E03046FFF702FF07F0020024
:1018F00020B950460AF1010A5845F4D300BFA9F1B6
:101900000101894601AA505CFFF7F2FEB9F1000F10
:10191000F5D102E02020FFF7EBFE50460AF1010A64
:101920005845F7D3FBE600BF07B0BDE8F08F0FB412
:1019300010B503AC21460298FFF7EBFE10BC5DF832
:1019400014FB70B505462846FFF72CFAC4B20D2CDF
:101950004ED00A2C4CD0082C01D07F2C30D114480A
:101960000068002852D012480068401E10490860E4
:10197000002010490E4A126888540F480078002849
:1019800044D108200D490870202048700820887034
:101990000020C8700846FFF7CAFF37E00008014082
:1019A0000038014000440040000C01400048004065
:1019B000340000203C000020380000208C00002073
:1019C000134800684F2821D21248007838B91248CD
:1019D00004700020104948700846FFF7A8FF0C4823
:1019E00001680068401C0A4A10600C4844540DE02D
:1019F00000210A48064A1268815400200449086000
:101A00000448007810B906A0FFF791FF70BD0000F0
:101A100034000020380000208C0000203C00002012
:101A20000A00000000F048F800F05EF8FFF71BFD28
:101A3000FFF7ADFD03A0FFF77AFF01E0FFF71BFD05
:101A4000FCE7000053797374656D20696E6974203A
:101A5000646F6E652E0A0000064C074D06E0E068D4
:101A600040F0010394E8070098471034AC42F6D3E5
:101A7000FEF762FB481B0008681B000802E008C86C
:101A8000121F08C1002AFAD170477047002001E0F8
:101A900001C1121F002AFBD1704710B50446012175
:101AA0002046FEF7E8FF10BD10B504460121204690
:101AB000FEF7D4FF10BD00000648006840F08070BB
:101AC000044908600448006840F0010002490860C9
:101AD00070470000FCED00E0001000E001490868DC
:101AE00070470000041000E030B5144800684FF45F
:101AF0007A72B0FBF2F1B1F1807F00D31DE021F0EA
:101B00007F40401E4FF0E022506150170F22002806
:101B100007DA13071D0E0A4B00F00F04241F1D5592
:101B200003E013071C0E074B1C5400BF00204FF0AE
:101B3000E02290610720106100BF30BD000000204E
:101B400018ED00E000E400E0681B00080000002041
:101B50003C0000007C1A0008A41B00083C00002088
:101B60005C0400008C1A000800A24A040000000077
:101B7000000000000102030406070809000000003D
:101B8000010203040102030406070809020406080F
:101B90000000000055534152543E00000000000078
:041BA0000000000041
:0400000508000131BD
:00000001FF
